:020000020000FC
:1000000000C008E00EBF0FE50DBF0FEF04BB00E01E
:1000100007BB0FE00ABB01E00BBBB19BFECF01E0C9
:100020000BBB45D047D002E00BBB3ED043D004E031
:100030000BBB37D03FD008E00BBB30D03BD004E047
:100040000BBB29D037D002E00BBB22D033D001E06C
:100050000BBB1BD02FD002E00BBB14D02BD004E085
:100060000BBB0DD027D00FE00BBB06D023D001D0A7
:10007000D4CF00E005BB08950FE305BB089506E06B
:1000800005BB08950BE505BB08950FE405BB089576
:1000900006E605BB08950DE605BB08950DE705BB13
:1000A000089507E005BB08950FE705BB089507E62F
:1000B00005BB08954AE034E62FEF2A95F1F73A950B
:0800C000D9F74A95C1F7089534
:00000001FF
